S01000004C574D5F4D5353592E7372656379
S1130000A4C00000C2C00000C0C00000BEC0000008
S1130010BCC00000BAC00000B8C00000B6C00000F8
S1130020B4C00000B2C00000B0C00000AEC0000008
S1130030ACC000000C94B009A8C00000A6C0000029
S1130040A4C00000A2C00000A0C000009EC0000028
S11300509CC000009AC0000098C0000096C0000038
S113006094C0000092C0000090C000008EC0000048
S11300708CC000008AC0000088C0000086C0000058
S113008084C0000082C0000080C000007EC0000068
S11300900C94550A0C94390A78C0000076C000000C
S11300A074C0000072C000000C9419096EC00000F6
S11300B06CC000006AC0000068C0000066C0000098
S11300C064C0000062C0000060C000005EC00000A8
S11300D05CC000005AC0000058C0000056C00000B8
S11300E054C0000052C0000050C000004EC00000C8
S11300F04CC000004AC0000048C0000046C00000D8
S113010044C0000042C0000040C000003EC00000E7
S11301103CC000003AC0000038C0000036C00000F7
S113012034C0000032C0000030C000002EC0000007
S11301302CC000005B079A084B0712084B07CE0837
S11301404B074B07D608DE08E70811241FBECFEF84
S1130150D1E8DEBFCDBF00E00CBF16E0A0E0B2E006
S1130160E2E4F6E300E00BBF02C007900D92AE3963
S1130170B107D9F723E1AEE9B6E001C01D92A23779
S1130180B207E1F7B0D40C941F1B3ACF0895CF9374
S1130190DF936623C1F1FC0120812031B1F5653084
S11301A0B1F5EC018BEE96E00E94AD148EED96E075
S11301B00E94AD14EBEEF6E089819A81A0E0B0E0F4
S11301C086839783A087B187128686E591E094871A
S11301D08387CF010E940415EEEDF6E08B819C81AC
S11301E0A0E0B0E086839783A087B18781E082870F
S11301F086EC90E094878387CF010E9404150E94C7
S1130200260B81E005C080E003C080E001C080E0EF
S1130210DF91CF910895FC01618587819085B7CFE7
S11302200895EF92FF920F931F93CF93DF938091E2
S1130230AF069091B006892B19F5C1EBD6E00F2ECD
S1130240FEEDEF2EF6E0FF2EF02D0EE916E08B8189
S1130250882391F0D093B006C093AF06888199812A
S1130260F80196838583CE010496938782878A81D9
S11302708487C8010E94680B2996CE15DF0539F7DB
S1130280DF91CF911F910F91FF90EF900895E0912E
S1130290AF06F091B0068FEF9FEF918380831382B6
S11302A01092B0061092AF06BCCF08950E942E0B98
S11302B08EED96E00C94AD140895EBEEF6E0128604
S11302C086E591E094878387EEEDF6E081E082870E
S11302D086EC90E0948783871092B0061092AF0664
S11302E0EEE9F6E0168215828FE08783808782E04C
S11302F0818787E491E096878587E1EBF6E02EED30
S113030036E08FEF9FEF9183808313823996E21753
S1130310F307C9F76BE071E08FE00C94140B0895B8
S11303202091BA063091BB0682179307F1F0209111
S1130330C3063091C4068217930789F02091CC0636
S11303403091CD068217930769F02091D50630913C
S1130350D60628173907E1F484E090E008C082E06B
S113036090E005C083E090E002C081E090E0FC01F1
S1130370EE0FFF1FEE0FFF1FEE0FFF1F8E0F9F1FCD
S1130380FC01EF54F94F81E083834BDF81E0089552
S113039080E008950F931F93CF93DF9300D01F92B3
S11303A01F92CDB7DEB790910A07923021F128F45D
S11303B0992349F0913091F0E1C09330C9F1943020
S11303C009F45AC0DBC0803109F0D8C01092090783
S11303D08093F80681E080930A07D0C09091F806D4
S11303E0980F9093F806823019F480930A07C6C0D8
S11303F010920A07C3C09091F806980F9093F806DC
S1130400803121F483E080930A070AC0E091090750
S113041091E09E0F90930907F0E0E750F94F808335
S113042080910907803109F0A9C010920A07A6C07B
S11304309091F806980F9093F8068031A1F4E0911A
S1130440090781E08E0F80930907F0E0E750F94F28
S113045090E19083803119F410920A078FC082E0F2
S113046080930A078BC0833021F484E080930A07C9
S113047085C010920A0782C09091F80689137CC047
S113048080910907893008F477C08091F90680319A
S113049009F072C08983E9EFF6E0818592859B8338
S11304A08A83838594859D838C8301811281C8010D
S11304B08031E0E79E0729F465E0CE01019667DE0E
S11304C05BC011230CF03FC02091BA063091BB06EB
S11304D02F3F3F4FF1F02091C3063091C4062F3FC8
S11304E03F4F89F02091CC063091CD062F3F3F4FEE
S11304F069F02091D5063091D6062F3F3F4FE1F5A4
S113050044E050E008C042E050E005C043E050E061
S113051002C041E050E069E0649F9001659F300DA6
S11305201124F901EF54F94F9183808385E082838C
S11305301382D901AB54B94FFE01319601900D924B
S11305408A95E1F719C02091B1063091B2062F3F88
S11305503F4F91F4E1EBF6E09183808385E0828361
S113056081E0838385E0FE013196A5EBB6E001903E
S11305700D928A95E1F755DE10920A070F900F90BD
S11305800F900F900F90DF91CF911F910F910895CD
S1130590E8ECF0E0908195FFFDCF8093CE000895C4
S11305A0E8ECF0E080818823ECF78091CE00089598
S11305B0CF93DF93EC018881882329F02196E8DF2B
S11305C089918111FCCF8DE0E3DF8AE0E1DF80E0F7
S11305D0DFDFDF91CF910895DBDF80E090E00895C5
S11305E0089585E080939707089582E080939707A4
S11305F0089583E080939707089580919707863044
S113060021F483E08093970708958BE197E00C949D
S1130610041508950F931F93CF93DF93EC018FE29A
S113062092E09F938F930E940D180F80D885C02D60
S113063088810F900F90803209F04BC08A818F938C
S113064089818F9382E492E09F938F930E940D1887
S1130650E8E2F7E009811A81028313831482158288
S1130660168217821086118689819A8193878287E0
S113067089819A81CBD789819A81A0E1B7E02091C1
S1130680190730911A0714963C932E93139720E37D
S11306902C9312969C938E931197E6E8F7E01682BA
S11306A0158282E08783808783E08187B387A2876E
S11306B085E0848789EF92E096878587CF010E9441
S11306C0680B84E0809397070F900F900F900F9022
S11306D00CC01F928F938EE592E09F938F930E949C
S11306E00D180F900F900F900F9081E0DF91CF9134
S11306F01F910F910895CF92DF92EF92FF920F9383
S11307001F93CF93DF936C01DC011796ED91FC915D
S113071018971A968C911A97818F1B968C911B9718
S1130720828F1796CD91DC9118978A859B85892BAA
S113073009F4E4C080E892E09F938F930E940D181F
S113074089811F928F9309E912E01F930F930E94EE
S11307500D188B858F938A858F938AEA92E09F93F5
S11307608F930E940D18888D8F938F898F938EEBB2
S113077092E09F938F930E940D18898D1F928F93FF
S113078083ED92E09F938F930E940D188A8D282FFA
S1130790082E000C330B3F938F938EED92E09F93C2
S11307A08F930E940D1889811F928F931F930F932B
S11307B00E940D188B8D1F928F938AEE92E09F9367
S11307C08F930E940D188C8D1F928F938EEF92E061
S11307D09F938F930E940D18EDB7FEB7B2960FB694
S11307E0F894FEBF0FBEEDBF88A18F938F8D8F93BA
S11307F08E8D8F938D8D8F9382E193E09F938F9352
S11308000E940D188CA18F938BA18F938AA18F9333
S113081089A18F9389E293E09F938F930E940D188F
S113082088A58F938FA18F938EA18F938DA18F9382
S11308308DE393E09F938F930E940D188CA58F9363
S11308408BA58F938AA58F9389A58F9382E593E0D7
S11308509F938F930E940D1888A98F938FA58F93D0
S11308608EA58F938DA58F938AE693E09F938F93A4
S11308700E940D1889A91F928F9380E893E09F939B
S11308808F930E940D188DB79EB782960FB6F89479
S11308909EBF0FBE8DBF8AA91F928F9384E993E0F8
S11308A09F938F930E940D1888EA93E09F938F93F0
S11308B00E940D188AA90F900F900F900F900F901F
S11308C00F90882399F07E0193E3E90EF11C00E078
S11308D010E0D7018D917D0190E00E9420180F5FF8
S11308E01F4F8AA990E0081719079CF380ED92E046
S11308F09F938F930E940D180F900F90F6018081A3
S113090091810EDD882319F081E00E94C70E81E0F9
S1130910DF91CF911F910F91FF90EF90DF90CF90D7
S11309200895CF93DF93EC018F8581110CC08091E2
S11309306B07811112C089E797E00E94AD1481E032
S113094080936B070AC080916B07882331F089E795
S113095097E00E94041510926B078889813041F456
S11309608CE697E00E94041587E08093970707C000
S113097080919707823019F085E080939707DF9183
S1130980CF9108950F931F93CF93DF93009749F06E
S11309908C01C0E0D0E047D5FDDC21960C171D0783
S11309A0D1F7DF91CF911F910F9108959D98A59A4A
S11309B0839A8B9808959599FECF28E180E090E082
S11309C0DC018B9A880F991FAA1FBB1F8B98959BDC
S11309D003C00196A11DB11D215099F78B9A8B98E4
S11309E0BC01CD01805808958F929F92AF92BF921F
S11309F0EF92FF920F931F93CF93DF93CDB7DEB7A0
S1130A00C054D1090FB6F894DEBF0FBECDBF4B0161
S1130A105C010E944716162F072FF82EE92E0E941C
S1130A207A169B01AC01C501B4010E947A1520E03D
S1130A3030E048EC52E40E9406170E9447169923BE
S1130A403CF490958095709561957F4F8F4F9F4FA3
S1130A509F938F937F936F93EF92FF920F931F93C4
S1130A6086EB93E09F938F938E010F5F1F4F1F932D
S1130A700F930E942518C8019BDD0FB6F894DEBFC2
S1130A800FBECDBFC05CDF4F0FB6F894DEBF0FBE04
S1130A90CDBFDF91CF911F910F91FF90EF90BF9049
S1130AA0AF909F908F90089589EC93E081DD8AEE5A
S1130AB093E07EDD8AE094E07BDD8CE294E078DDF7
S1130AC08CE494E075DD85E894E072CD0895CF93CD
S1130AD0DF93CEE1D0E082ED92E06ADD2197D9F791
S1130AE0DF91CF910895CF93DF93CDB7DEB72F97E2
S1130AF00FB6F894DEBF0FBECDBF0E94381460E07D
S1130B0076E980E090E03BD42FEF34E34CE02150D1
S1130B1030404040E1F700C00000ECE6F3E184E03F
S1130B2092E093838283918380836D986E98759A03
S1130B30769A78943BDF84E994E03ADD8DE0E2E252
S1130B40F2E0DE01119601900D928A95E1F7898118
S1130B50882361F010E01CDD1F5FE1E0F0E0EC0FA2
S1130B60FD1FE10FF11D80818111F5CF84B18066F5
S1130B7084B96B9A99DF0F2EF5E24F2EF5E05F2EC4
S1130B80F02D08E917E00F2EF7EC2F2EF5E03F2E9D
S1130B90F02D0E871F870F2EF4EE6F2EF5E07F2EBB
S1130BA0F02D0F2EFFEF8F2EF5E09F2EF02D0F2E40
S1130BB0F8ECAF2EF4E0BF2EF02DF2DCF82E8FE926
S1130BC094E0F6DC8F2DE4DC8DE0E2DC8AE0E0DC0E
S1130BD052E3F51659F15F1538F080E3F81669F021
S1130BE091E3F91669F0F8C2A3E3FA1609F415C102
S1130BF0B4E3FB1609F42FC1EFC269DF55DFDDCF83
S1130C008EEA94E0D5DCD7DE9F938F937F936F9326
S1130C10BF92AF921F930F930E942518C801C8DC9E
S1130C200FB6F894DEBF0FBECDBFC7CF83ED94E0FF
S1130C30BFDC89EE94E0BCDC8CEF94E0B9DCB0DC82
S1130C408B3121F480E195E0B3DCF9CF8D3069F587
S1130C50B2DE60931E0270931F0280932002909371
S1130C6021029F938F937F936F935F924F921F9371
S1130C700F930E942518C8019BDC8DE395E098DC56
S1130C808CE595E095DC89EE94E092DC8CEF94E0C1
S1130C908FDC83E895E08CDC8AE995E089DC0FB68B
S1130CA0F894DEBF0FBECDBF04C086EB95E080DCB8
S1130CB0C6CF80911D028F9380911C028F938091E7
S1130CC01B028F9380911A028F933F922F921F934E
S1130CD00F930E9425188E859F856ADC61DC0FB610
S1130CE0F894DEBF0FBECDBF8B32A1F480911A02FF
S1130CF090911B02A0911C02B0911D020A96A11DA5
S1130D00B11D80931A0290931B02A0931C02B0930E
S1130D101D02CFCF8D32A1F480911A0290911B0253
S1130D20A0911C02B0911D020A97A109B1098093F8
S1130D301A0290931B02A0931C02B0931D02B9CF18
S1130D408B3121F480E195E033DC63C08D3009F010
S1130D50B0CF80911D028F9380911C028F9380915C
S1130D601B028F9380911A028F937F926F921F932D
S1130D700F930E942518C8011BDC1DDE6093160228
S1130D807093170280931802909319029F938F9384
S1130D907F936F939F928F921F930F930E942518B6
S1130DA08091160290911702A0911802B091190235
S1130DB0C0901E02D0901F02E0902002F090210209
S1130DC0BC01CD016C197D098E099F090E9478161A
S1130DD06B017C0160911A0270911B0280911C02CC
S1130DE090911D020E9478169B01AC01C701B601C7
S1130DF00E94DF1560931202709313028093140211
S1130E0090931502C801D4DB0FB6F894DEBF0FBE71
S1130E10CDBF8CE196E0CCDBD0CE8CE396E0C8DB92
S1130E20CADDC0901E02D0901F02E0902002F09014
S1130E3021026C197D098E099F090E947A1620915E
S1130E4012023091130240911402509115020E9433
S1130E50DF15CADDB2CE0F2EFBE0CF2EF7E0DF2E7A
S1130E60F02D0F2EF0E1AF2EF0E7BF2EF02D0F2E58
S1130E70F6E8EF2EF7E0FF2EF02D0F2EF5EF8F2E74
S1130E80F2E09F2EF02D0F2EF2E62F2EF6E03F2EED
S1130E90F02D08E217E00E943F145ED3809197077B
S1130EA090E08B309105B8F7FC018827E656FF4F98
S1130EB08F4F0C94A71777247394D8017C921196C2
S1130EC07C92119780E112968C93129790E7139677
S1130ED09C93139714961C92149715961C9215972D
S1130EE016961C92169717961C92179718961C9292
S1130EF0189719961C9219971B96BC92AE921A9742
S1130F0020E031E041E051E01C962D933D934D9358
S1130F105C931F9720E030E840E050E050962D931A
S1130F203D934D935C93539720E830E056963C9361
S1130F302E9355979FE054969C93549758961C92E1
S1130F401E92579759961C9259975A961C925A97E3
S1130F505B967C925B979CE05C969C935C97F80113
S1130F60158E168E178E10A291961D921D921D92AB
S1130F701C92949715A216A217A210A690E291AB08
S1130F8082ABE1E5F6E0ABE5B7E001900D928A951E
S1130F90E1F7C5013BD380E890E03FD38FE00E94A6
S1130FA0521381E00E944E136BE773E081E03CD35F
S1130FB06AE073E082E038D3EBE1F7E080E197E2A6
S1130FC0A0E0B0E086839783A087B18712868DEF77
S1130FD092E09487838710926B07E9E7F7E024EFA8
S1130FE031E040E050E026833783408751877286A2
S1130FF080EF92E094878387CF010E940415ECE68A
S1131000F7E088EE93E0A0E0B0E086839783A087C2
S1131010B187128681EF92E0948783874ED97092CC
S1131020970739CF60E080E090E01CD5D80158964E
S11310309C938E935797BFDC40901E0250901F02E2
S1131040609020027090210264197509860997093D
S11310500E947A16209112023091130240911402D8
S1131060509115020E94DF152B013C010E94F617D6
S1131070A0E0B0E0F801858F968FA78FB0A323E698
S113108030E040E050E021A332A343A354A325E47D
S113109030E040E050E021A732A743A754A7C301A2
S11310A0B2010E944716CB01770FAA0BBB0BF801C4
S11310B085A796A7A7A7B0AB8091150790911607AF
S11310C0A0911707B0911807AC01BD014F5F5F4FA6
S11310D06F4F7F4F40931507509316076093170780
S11310E07093180785A396A3A7A3B0A7D701169654
S11310F01C921E92159781E017968C931797189659
S11311008C93189783E019968C9319971B961C93CC
S11311100E931A9783E41C968C931C97E1E9F4E0F0
S11311201E96FC93EE931D97C701D2D284E0809360
S11311309707B1CE0E94F61790931A078093190768
S1131140D60114969C938E93139780E18C931296F8
S1131150BC92AE921197F701168215826894772497
S113116071F87782708683E08187D386C28685E0B2
S1131170848796868586C701ABD270929707809143
S11311801A078F93809119078F933F922F920E9491
S11311900D180F900F900F900F907DCE8BE197E07C
S11311A00E94041586E08093970775CE46D281117C
S11311B072CE5CD289E0809397076DCE60E177E2CE
S11311C080E090E047D08AE08093970764CE51D2C4
S11311D083E0809397075FCE89E796E0E9D9EDCC69
S11311E014BE0FB6F894A89580916000886180932E
S11311F06000109260000FBEE1E6F0E080E88083BA
S11312001082789401C008951092431380E197E20C
S11312109093A9008093A800E1EAF0E088E080833D
S1131220808182608083E2E7F0E080818260808355
S113123008951F920F920FB60F9211248F938091ED
S113124043138F5F809343138F910F900FBE0F90C2
S11312501F901895CF93DF93DC01CB01880F991F62
S1131260AA1FBB1F880F991FAA1FBB1F880F991F96
S1131270AA1FBB1F880F991FAA1FBB1FBC01CD014A
S1131280660F771F881F991F28EE33E040E050E077
S11312900E946917DA01C90121153105410551057B
S11312A009F45BC07727652F542F432F282F109202
S11312B07000E6EBF0E08081806280831092B000E1
S11312C01092B1001092B20080818F71E9F787E02B
S11312D087BB8093B100C3EBD0E06FEFA0E7B0E031
S11312E0E6EBF0E037E001C020E01092D8074115AA
S11312F0510511F068831BC0222311F0288317C005
S1131300E6EBF0E080818F71E9F7109270001092A3
S1131310B10083B5826083BDE6EBF0E080818F711C
S1131320E9F7E6EBF0E080818F7D808316C08C9135
S113133082608C9380818F71E9F733BF889513BEE7
S11313409FB7F8948091D8079FBF882371F2411505
S1131350510551F241505109C8CFDF91CF91089501
S11313601F920F920FB60F9211248F9381E08093F6
S1131370D8078F910F900FBE0F901F901895DC0126
S1131380CB01880F991FAA1FBB1F880F991FAA1F83
S1131390BB1F9C01AD01220F331F441F551F220F99
S11313A0331F441F551F60E074E284EF90E00E94F5
S11313B06917BA01A9014150510961097109BB2793
S11313C0A72F962F852F8093CD004093CC00A8ECB7
S11313D0B0E082E08C9388E98093C90086E0809332
S11313E0CA00E7E7F9E08EEA98E091878087B58341
S11313F0A483178216821182108213821282E4EA75
S1131400F8E08BED97E091878087B583A4831782FA
S11314101682118210821382128281E08093DA078D
S11314201092D90708954FB7F894E4EAF8E02085BC
S1131430318580819181BC016F5F7F4F71836083AF
S1131440D901A80FB91F8C916081718124813581E4
S11314506217730721F41092A5081092A408E4EA15
S1131460F8E02681378121503109378326834FBF25
S113147008951F920F920FB60F9211240BB60F927C
S11314808F93EF93FF9381E08093DA07E9ECF0E028
S113149080818F7D8083FF91EF918F910F900BBEA0
S11314A00F900FBE0F901F9018951F920F920FB6BA
S11314B00F9211240BB60F922F933F934F935F9388
S11314C06F937F938F939F93AF93BF93EF93FF9308
S11314D08091C8002091CE008C7159F5E4EAF8E0BF
S11314E046815781848195814817590711F14085B8
S11314F0518582819381BC016F5F7F4F73836283C7
S1131500DA01A80FB91F2C9322813381848195813C
S11315102817390721F41092A7081092A608E4EAC4
S1131520F8E08681978101969783868381E0809392
S1131530D907FF91EF91BF91AF919F918F917F91C7
S11315406F915F914F913F912F910F900BBE0F9030
S11315500FBE0F901F90189580917D0990917E0980
S1131560009769F12091DA07222349F1E7E7F9E0CE
S11315706085718520813181A9014F5F5F4F51835F
S11315804083DB01A20FB31F2C9164817581461740
S1131590570721F4109278091092770901979093D4
S11315A07E0980937D099FB7F8942093CE00E9ECDF
S11315B0F0E08081806280831092DA079FBF2FB7AA
S11315C0F8949091D9071092D9074091AA085091A4
S11315D0AB082FBF992311F0CA01D4C90895E4E4DC
S11315E0F3E1148215821182108217A216A2EAE492
S11315F0F3E18AE693E111921192E817F907D9F71A
S113160063D67DD32CD15FD0AFC108959093451399
S1131610809344130C946813089590934713809314
S113162046130C9456130895E82FF0E0EE0FFF1FB5
S1131630E65BFC4E71836083089581E020916A1318
S113164030916B13232B09F480E00895E4E4F3E173
S113165086A197A1019697A386A30895E4E4F3E1F4
S113166086A197A1019797A386A308950C947F134D
S113167008950C948A1308958DD322D74DC00895EC
S1131680E0918109F09182093097D9F02281338168
S11316908217930789F405C02281338128173907FB
S11316A059F4DC01AD57BF4F2C91278713962C9129
S11316B0208B22E0248305C00190F081E02D309737
S11316C059F70FC108951092820910928109089563
S11316D0FC011482178613821282A4E4B3E1969665
S11316E08D919C919797019697969C938E9396973C
S11316F08091810990918209009739F411821082B6
S1131700F0938209E0938109089591838083F09393
S11317108209E093810908950F931F93CF93DF9378
S1131720E0918109F0918209309709F493C0EF01A7
S11317308C81882321F0823009F466C085C09AD058
S11317408C01009721F482E08C838F8783C09B8374
S11317508A8381E08C83F801E957FF4F80E49BE0A2
S1131760918380833197898582FB882780F98083E0
S11317709985D8011B968C911B9790FB80F91B9639
S11317808C931B97998593FB992790F990FB82F989
S11317901B968C931B97E4E4F3E184818F5F84832D
S11317A01C968C931C97808191811E969C938E939A
S11317B01D978D819E8150969C938E931F9788854B
S11317C0982F9F7051968C915197807F892B5196B9
S11317D08C9351979F819295907F8F70892B51960E
S11317E08C93F801EF57FF4F4C8550E06A857B8559
S11317F0808191810E940418F80191818C85890F60
S11318008183C80184D526C0EC17FD0741F480818B
S1131810918190938209809381090AC0FC0180819F
S113182091818C179D07D1F7888199819183808359
S1131830E4E4F3E186A197A1019797A386A3ED853C
S1131840FE85CE01199506C00990D881C02D209738
S113185009F06ECFDF91CF911F910F910895E3E8C6
S1131860F9E08DED9EE01082E757FF4FE817F90786
S1131870D1F7089580918309882349F0ECE0FAE0D8
S113188081E090E0AC012081211122C002C040E03F
S113189050E069E8649F9001659F300D1124C901EF
S11318A08D57964FFC0111926A95E9F740E1FC01CE
S11318B04183EF57FF4F2B56364F31832083E4E4A7
S11318C0F3E126A137A12F5F3F4F37A326A3089545
S11318D00196E757FF4F8A309105A1F680E090E02A
S11318E00895FC011082E4E4F3E186A197A1019735
S11318F097A386A30895009741F0FC01E757FF4F93
S11319008EE0ED3DF80718F012C0E3E8F9E08081BD
S1131910882321F00FC0808181110FC0E757FF4F4A
S11319208EE0ED3DF807B8F380E090E0089580E0A4
S113193090E008958E2F9F2F08958E2F9F2F089546
S1131940FC01DC01AD57BF4F1C92A4E4B3E1149633
S11319509C9114979F5F14969C93149794878D91F0
S11319609C91968785870895AEEDBEE080E090E077
S11319704FEF5FEF11965C934E93FC01EE0FFF1F48
S1131980EE0FFF1FEE0FFF1FE81BF90BE352F14FA1
S113199020812E7F208314961C921497019617960B
S11319A08436910539F708950F931F93CF93DF93EE
S11319B0EEEDFEE020E030E0062F10E040815181A2
S11319C048175907B1F4D901AA0FBB1FAA0FBB1FAF
S11319D0AA0FBB1FA21BB30BA352B14F4C91469548
S11319E04170C42F40E0D42FC017D10711F4CD01AA
S11319F008C02F5F3F4F379624363105F9F680E053
S1131A0090E0DF91CF911F910F910895A0E0B0E095
S1131A10EDEDFEE0808180FD0DC08581882381F09D
S1131A20109739F015969C911597891718F4DF01D2
S1131A3001C0DF01379681E1E939F80759F7FD0163
S1131A4080818D708063808380E88583CF010895D1
S1131A50FC01808180FD05C08FEF9FEF928381831D
S1131A6015820895A1DF009721F0FC018381948100
S1131A7008958FEF9FEF089597DF009709F0E8CF5F
S1131A8008950F931F93CF93DF93FC010185128573
S1131A9011232CF48585968508171907E1F58581AE
S1131AA096810196C1F1EF0160E0858596857CDF22
S1131AB0FC01892BA1F08F8198850196F9F420917E
S1131AC04413309145138F85988928173907B1F449
S1131AD01483038380818F70806380830AC096DFC0
S1131AE0FC018D859E859283818389859A85948363
S1131AF08383CD57DF4F888186830DC08381948192
S1131B0008171907B1F39681DE01AD57BF4F8C91C9
S1131B109817F0F2EECFDF91CF911F910F910895B6
S1131B20CF93DF93FC01878590898F3F2FEF920736
S1131B30D9F1EF01638563FB662760F935DFDC01CA
S1131B40892B91F18C9180FD2FC0FE01ED57FF4F41
S1131B508081811119C08C918F7080638C9315964C
S1131B608C9115978F5F15968C938F3FE9F4E2EE75
S1131B70FEE02EE931E1808186958F5F8083379680
S1131B80E217F307C1F710C09C91892F82958F70DB
S1131B90815F8F70282F2295207F9F70922B9C93BA
S1131BA0811102C0CD0154DFDF91CF910895CF930D
S1131BB0DF93FC01878590898F3F2FEF920729F4EB
S1131BC08FEF9FEF908787830EC0238522FF03C08A
S1131BD09087878308C0EF01638563FB662760F9FC
S1131BE041DF98878F83DF91CF910895AF92BF92A1
S1131BF0CF92DF92EF92FF921F93CF93DF93EC018A
S1131C001B8513FB112710F9CF84D888612FC601D7
S1131C1029DF019659F0FE01E957FF4F1182108226
S1131C20319782E08083CE0172D322C0AD84BE841A
S1131C3021DE7C010097D1F083DEF70181818A5F88
S1131C408183E957FF4F11821082F701B08AA7867A
S1131C50EF57FF4F0190F081E02D81E08083B28245
S1131C60A182D482C3821583C70151D3CE0139DE48
S1131C70DF91CF911F91FF90EF90DF90CF90BF90B5
S1131C80AF900895FC012185263049F40780F08542
S1131C90E02D658183819481EFDE81E0089580E009
S1131CA00895DC0119962C911997222371F0179647
S1131CB0ED91FC9118972081222319F0213019F01D
S1131CC006C0B6C30895DECF089580E0089580E08D
S1131CD00895BC01EBEAF1E125EA32E140E051E08C
S1131CE09081992319F091509083452F3596E217EE
S1131CF0F307B1F7442311F0CB0186C60895EBEA4C
S1131D00F1E185EA92E110823596E817F907D9F7EF
S1131D10E9E9F1E184E690E0A0E0B0E0868397830E
S1131D20A087B187128689E69EE09487838761E560
S1131D307EE080E079CC0895CF93DF93DC01ED91D0
S1131D40FC91119721812838F9F420812F7D2134C9
S1131D50D9F412962C912031B8F0EC018BDD009768
S1131D6099F020E2FC0120832A8121832B81ED5705
S1131D70FF4F20832C81319620834A8150E0688173
S1131D80798102960E940418DF91CF91089580937F
S1131D90A61108952F923F924F925F926F927F9275
S1131DA08F929F92AF92BF92CF92DF92EF92FF9267
S1131DB00F931F93CF93DF93CDB7DEB72C970FB656
S1131DC0F894DEBF0FBECDBF00E010E00F2EF4E2AA
S1131DD0BF2EF02D0F2EF4E4EF2EF3E1FF2EF02DA5
S1131DE0442443946894AA24A4F86894772473F848
S1131DF06894662462F8312C212C0F2EF5E15F2EB5
S1131E00F02DCC24C394D12CDAC1D8018C91823228
S1131E1009F405C118F4803241F0D1C1833209F4C8
S1131E20C9C1843209F4C9C1CAC1F801B082838529
S1131E30982F9A7009F0C3C1258136812F3F3F4FF7
S1131E4091F4D8011F968D919C915097F7012081B0
S1131E5031812817390719F0019609F0B0C1E2E27F
S1131E60D801EC93ACC1D8011F962D913C915097A9
S1131E702F3F3F4F11F480FDA2C1F7012081318132
S1131E80D8011D968D919C911E972817390709F446
S1131E9096C1C801F6DDE7EAF1E180E090E0832C29
S1131EA0922C9C014481442309F474C0D8011D96EA
S1131EB06D917C911E97408151816417750709F0DB
S1131EC06AC01C968C911C97F901EE0FFF1FEE0F50
S1131ED0FF1FE20FF31FE955FE4E9281981B9830C5
S1131EE008F03EC0F901EE0FFF1FEE0FFF1FE20FD7
S1131EF0F31FE955FE4E8381482F50E0092E02C09E
S1131F00559547950A94E2F740FF17C0F7012081E1
S1131F10318117968D919C9118972817390709F0EC
S1131F204EC11B966C911B9763FB662760F91F9645
S1131F308D919C915097A0DD42C1F901EE0FFF1FD6
S1131F40EE0FFF1F2E0F3F1FF901E955FE4E9601BC
S1131F5002C0220F331F9A95E2F7822B838336C186
S1131F60F901EE0FFF1FEE0FFF1F2E0F3F1FF901A8
S1131F70E955FE4E82838381282F30E09195A90193
S1131F8002C0440F551F9A95E2F7CA01816083830A
S1131F9054821CC14F01019635968233910509F094
S1131FA080CF8114910409F40AC1D8011D968D9142
S1131FB09C911E97F401918380831C968C9182835B
S1131FC04382548289E991E11FD500C1D7012D9143
S1131FD03C91F801878590892817390781F043855A
S1131FE042FD0BC0C801E1D1D7012D913C91F8010C
S1131FF0878590892817390711F0019621F4E2E2C8
S1132000D801EC93DCC0D80117968D919C91189758
S11320108217930709F0D3C0E3E2EC93D0C0109287
S1132020A611D80151968C91519782958F70E82F03
S1132030F0E0EE0FFF1FE65BFC4E0190F081E02D17
S1132040309709F460C01D962D913C911E973A83F8
S113205029831F964D915C9150975C834B835196D5
S11320609C9151979F709D838E83AF57BF4F8D91E5
S11320709C9199878887B8016E5F7F4F861B970B69
S1132080D80111969C911197981B9A87AD57BF4F11
S11320908C918B8711968C918C87D8011B969C917F
S11320A0692F637092FD02C080E001C080E2862B3C
S11320B093FD02C090E001C090E4892B4F3F5F4F35
S11320C011F090E001C0962D892BD80119964D91FD
S11320D05C911A972417350711F090E001C0972DF1
S11320E0892B8F83D80115962D913C9116972F3FFC
S11320F03F4F11F090E001C09A2D892B8F83CE01C0
S11321000196199501C080E0F801938590FF80E065
S1132110D80117962D913C9118972F3F3F4F69F4A2
S1132120F70140815181D8011F962D913C91509720
S11321304217530711F493FF842DF801258136814A
S11321402F3F3F4FA1F1D7012D913C912F3F3F4F9E
S113215071F1882361F18EDB4C01009741F1F0DBD2
S1132160F40181818D5F8183E957FF4F11821082D1
S1132170D8011B968C911B9786958170F4019385E9
S113218080FB91F993871D968D919C911E97908B5E
S11321908787EF57FF4F0190F081E02D10828091E7
S11321A0A61182831C968C918183C401B0D0D8017E
S11321B0BC9205C0C8011ADD02C0C80192DBC80187
S11321C09ADB8C01892B09F020CE07C0F8018781A6
S11321D09085019609F008CFF9CE2C960FB6F894A5
S11321E0DEBF0FBECDBFDF91CF911F910F91FF9046
S11321F0EF90DF90CF90BF90AF909F908F907F90A3
S11322006F905F904F903F902F900895EF92FF92C0
S11322100F931F93CF937C0110E080E090E001E0E6
S1132220C3E113C0FC012081213179F4EC57FF4F45
S1132230208131812150310931832083232B21F4E2
S1132240FC01C083102F01C0102F55DB009751F7FC
S1132250112311F0C701D8D3CF911F910F91FF9093
S1132260EF900895EF92FF920F931F93CF93DF9314
S11322707C0110E080E090E001E0D7E1C0E116C00D
S1132280FC012081263191F4EC57FF4F20813181EC
S11322902150310931832083232B39F4FC01D0836D
S11322A0ED57FF4FC083102F01C0102F24DB009780
S11322B039F7112311F0C701A7D3DF91CF911F91F3
S11322C00F91FF90EF9008951092BC121092BB12E0
S11322D0EEEAF2E182E390E0A0E0B0E08683978347
S11322E0A087B187128682E391E194878387E1EA2C
S11322F0F2E18AE090E0A0E0B0E086839783A087D3
S1132300B187128686E091E1948783870895CF93FD
S1132310DF93EC01FC01EA57FF4F808181FF03C08A
S113232092E1988302C092E19883FE01ED57FF4F3A
S1132330108280FF05C02FEF3FEF3E832D8306C040
S113234020914613309147133E832D83857019F4F1
S1132350CE012DDC04C08F85988998878F83E4E4AF
S1132360F3E1808191819A87898785818F5F858355
S11323708C838F819885019669F481E498E89B8326
S11323808A8334D6CC57DF4F877099270196998377
S1132390888308C081E698E89B838A83CC57DF4F03
S11323A019821882DF91CF9108950F931F93CF93D1
S11323B0DF938C015FDAEC01892BA9F182E1888338
S11323C0F80181818983FE01ED57FF4F10820ED6FB
S11323D0FE01EC57FF4F8770992701969183808304
S11323E0339611821082F801418150E0B8016E5F8A
S11323F07F4FCE01029608D681E498E89B838A83B6
S11324008FEF9FEF98878F83F801858196819E8354
S11324108D83E4E4F3E1808191819A8789878581C2
S11324208F5F85838C83DF91CF911F910F910895E6
S1132430CF93DF93FC0121852330D9F410C0FC0134
S11324402081263189F43485298132130DC027E196
S113245020832A81EA57FF4F208381E00BC0FC01CF
S1132460C781D08580E090E046DA009741F780E0AC
S113247001C080E0DF91CF910895E091BB12F0910B
S1132480BC12813021F048F0823019F004C080E29F
S113249005C081E203C081E001C080E0DF01AD57E7
S11324A0BF4F8C9385E180831092BC121092BB12B3
S11324B0E4E4F3E186A197A1019797A386A3089585
S11324C09F92AF92BF92CF92DF92EF92FF920F93BF
S11324D01F93CF93DF93C0E0D0E00F2EF4E1AF2E33
S11324E0F02D04E413E10F2EF7E1DF2EF02D0F2E73
S11324F0F6E19F2EF02D0F2EF5E1EF2EF12CF02DAD
S11325000F2EF3E1CF2EF02D0F2EF1E1BF2EF02D83
S113251060C088818331C1F018F4823139F059C028
S1132520853149F1873109F445C053C0FE01EC57A8
S1132530FF4F80819181892B29F0B88281EA92E151
S113254063D247C0C88245C08091BB129091BC122F
S1132550892B09F03EC0D093BC12C093BB12A88251
S11325606981CE010296E0D0F80186A197A1019677
S113257097A386A32EC0FE01ED57FF4F80818111E2
S113258017C02D853E85F801808191812817390770
S113259069F48B8580FF0AC09882FE01EC57FF4FD7
S11325A0F182E0828EEA92E12FD213C0D88211C068
S11325B0D8820FC0CE01B4DAFE01E957FF4F019073
S11325C0F081E02D309719F4CE018BD902C0CE01F1
S11325D01995CE0190D9EC01892B09F09ACFDF919E
S11325E0CF911F910F91FF90EF90DF90CF90BF900C
S11325F0AF909F9008958091BD12982F9F70E4E54D
S1132600F1E08081807F892B80838091BD128823B3
S113261029F08091BE128093530108958091BE12D7
S1132620982F9F71E8E4F1E08081807E892B80837C
S1132630089593E090934201E1E4F1E090819F7169
S11326409830E1F780934201E1E4F1E090819F71D9
S11326508913FCCF089588E0ECDF8FEF80934F015E
S11326608091BF12882311F086E1E3CF0895E9E356
S1132670F1E08081816080831092BF121092BD12BC
S113268081E08093401388E0D4DF8BEE8093560181
S1132690ECE4F1E080818068808308958093BF1228
S11326A0DACF08958093BE12A6CF0895CF93DF9317
S11326B01F921F92CDB7DEB79A83898380936201FC
S11326C08A81809363010F900F90DF91CF910895D9
S11326D0CF93DF931F921F92CDB7DEB79A8389837E
S11326E0809360018A818093610199818A81890F35
S11326F080936D010F900F90DF91CF91089588E042
S113270098DFE9E3F1E080818260808382E0809356
S113271040130895E9E3F1E080818D7F80839BDF9E
S113272081E08093401308951F93CF93DF93182F74
S1132730D92FC62F89E17DDF8FEF80934F0182E08F
S11327408C0F80938001CC2371F0A12FBD2FC15039
S11327506C2F70E06E577E4FE1E8F1E08D9181932C
S1132760E617F707D9F783E08093401382E080935C
S11327704201DF91CF911F9108951F93CF93DF936F
S113278000D01F921F92CDB7DEB7809140138230E4
S113279009F465C080914F0183FF3EC0A0917B0185
S11327A06A2F70E0AB014F5F5F4F80E090E020E064
S11327B0FC01E058FE4F3081FC01E054FD4E3083B3
S11327C02F5F822F90E08417950794F380EC92E1B9
S11327D09A838983A250AB83FB01E054FD4E808130
S11327E08C83809147018A558D83CE010196A4DAAA
S11327F0E1E4F1E080818F718631E1F7EFE4F1E00B
S1132800808188608083ECE4F1E080818F7780832D
S113281080818068808323C080914F0186FF1FC020
S1132820809141018F718931A9F41091420112956F
S11328301695177049F0133021F0153021F013E08C
S113284003C011E001C012E006DF81E08093401371
S1132850812F13DEEFE4F1E08081806480830F90A8
S11328600F900F900F900F90DF91CF911F910895CB
S11328700E94F0086DD0FBDE0C94EF0A08957DDF12
S11328800E943C0BCCC008950F931F93CF93DF930A
S1132890EC018091411390914213009709F445C0D3
S11328A04E815F8168857985FC01028113812481D1
S11328B03581401751076207730760F0DC0117C0C8
S11328C00281138124813581401751076207730700
S11328D068F403C0FC01A0E0B0E0041B150B260B58
S11328E0370B02831383248335830AC0DF01401B23
S11328F0510B620B730BED91FC911197309701F71B
S11329004A835B836C837D83109741F08D919C9106
S1132910119799838883CD93DC9315C09983888319
S1132920D0934213C09341130EC0198218828E8132
S11329309F81A885B9858A839B83AC83BD83D0930B
S11329404213C0934113DF91CF911F910F910895CA
S113295010924213109241130895CF93DF93A091E4
S11329604113B0914213109791F1A817B90751F58B
S11329700AC08E179F0729F5109731F02081318105
S11329802D933C9307C0FC01208131813093421385
S1132990209341130190F081E02D3097C1F04281E2
S11329A0538164817581EC018A819B81AC81BD81F5
S11329B0840F951FA61FB71F82839383A483B583B7
S11329C006C0DF01ED91FC911197309791F6DF91EC
S11329D0CF910895E0914113F0914213309771F033
S11329E0E817F90721F40CC08E179F0759F00190DE
S11329F0F081E02D3097C1F780E0089580E00895DC
S1132A0081E0089581E00895CF93DF93EC01E2DF44
S1132A10811102C0CE0138DFDF91CF910895CF92AA
S1132A20DF92EF92FF92CF93DF9380914313882339
S1132A3009F459C08FB7F894C0904313109243130C
S1132A408FBFD12CE12CF12CCC0CDD1CEE1CFF1C17
S1132A50D701C601880F991FAA1FBB1F880F991F92
S1132A60AA1FBB1FC80ED91EEA1EFB1EC09141132C
S1132A70D09142132097B9F18A819B81AC81BD81A9
S1132A80C816D906EA06FB0610F1C81AD90AEA0ADA
S1132A90FB0A8881998190934213809341138A851C
S1132AA0813011F4CE01F0DEEB85FC85CE01199561
S1132AB0C0914113D09142132097A9F08A819B8140
S1132AC0AC81BD81C816D906EA06FB06F0F68A81F8
S1132AD09B81AC81BD818C199D09AE09BF098A8394
S1132AE09B83AC83BD83DF91CF91FF90EF90DF9008
S1132AF0CF9008955058BB27AA270ED04DC13ED180
S1132B0030F043D120F031F49F3F11F41EF433C16F
S1132B100EF4E095E7FB29C1E92F4FD180F3BA17F2
S1132B20620773078407950718F071F49EF567C16F
S1132B300EF4E0950B2EBA2FA02D0B01B9019001D4
S1132B400C01CA01A0011124FF27591B99F0593F18
S1132B5050F4503E68F11A16F040A22F232F342F60
S1132B604427585FF3CF469537952795A795F040AE
S1132B705395C9F77EF41F16BA0B620B730B840BC3
S1132B80BAF09150A1F0FF0FBB1F661F771F881F7B
S1132B90C2F70EC0BA0F621F731F841F48F48795D3
S1132BA077956795B795F7959E3F08F0B3CF9395C2
S1132BB0880F08F09927EE0F9795879508950CD004
S1132BC0EBC0E3D040F0DAD030F021F45F3F19F0ED
S1132BD0CCC0511115C1CFC0F0D098F39923C9F3DB
S1132BE05523B1F3951B550BBB27AA27621773070F
S1132BF0840738F09F5F5F4F220F331F441FAA1FC3
S1132C00A9F333D00E2E3AF0E0E830D09150504082
S1132C10E695001CCAF729D0FE2F27D0660F771F30
S1132C20881FBB1F261737074807AB07B0E809F012
S1132C30BB0B802DBF01FF2793585F4F2AF09E3FA7
S1132C40510568F092C0DCC05F3FECF3983EDCF3C2
S1132C50869577956795B795F7959F5FC9F7880F20
S1132C60911D9695879597F90895E1E0660F771F72
S1132C70881FBB1F621773078407BA0720F0621B03
S1132C80730B840BBA0BEE1F88F7E095089504D0FC
S1132C906894B111B5C0089598D088F09F5790F00A
S1132CA0B92F9927B751A0F0D1F0660F771F881F6D
S1132CB0991F1AF0BA95C9F712C0B13081F09FD0AC
S1132CC0B1E008959CC0672F782F8827B85F39F04A
S1132CD0B93FCCF3869577956795B395D9F73EF4CC
S1132CE090958095709561957F4F8F4F9F4F089574
S1132CF0E89409C097FB3EF4909580957095619592
S1132D007F4F8F4F9F4F9923A9F0F92F96E9BB2747
S1132D109395F695879577956795B795F111F8CFC3
S1132D20FAF4BB0F11F460FF1BC06F5F7F4F8F4F2E
S1132D309F4F16C0882311F096E911C0772321F024
S1132D409EE8872F762F05C0662371F096E8862FBC
S1132D5070E060E02AF09A95660F771F881FDAF713
S1132D60880F9695879597F9089597F99F6780E856
S1132D7070E060E008959FEF80EC089500240A94C9
S1132D801616170618060906089500240A94121642
S1132D901306140605060895092E0394000C11F475
S1132DA0882352F0BB0F40F4BF2B11F460FF04C022
S1132DB06F5F7F4F8F4F9F4F089557FD9058440F7B
S1132DC0551F59F05F3F71F04795880F97FB991F86
S1132DD061F09F3F79F08795089512161306140643
S1132DE0551FF2CF4695F1DF08C0161617061806D0
S1132DF0991FF1CF86957105610508940895E894AB
S1132E00BB2766277727CB0197F908950BD0C4CF4A
S1132E10B5DF28F0BADF18F0952309F0A6CFABCFC1
S1132E201124EECFCADFA0F3959FD1F3950F50E0A4
S1132E30551F629FF001729FBB27F00DB11D639F68
S1132E40AA27F00DB11DAA1F649F6627B00DA11D0E
S1132E50661F829F2227B00DA11D621F739FB00DB4
S1132E60A11D621F839FA00D611D221F749F332724
S1132E70A00D611D231F849F600D211D822F762FBD
S1132E806A2F11249F5750408AF0E1F088234AF0BA
S1132E90EE0FFF1FBB1F661F771F881F9150504006
S1132EA0A9F79E3F510570F060CFAACF5F3FECF3C6
S1132EB0983EDCF3869577956795B795F795E795F2
S1132EC09F5FC1F7FE2B880F911D9695879597F903
S1132ED00895A1E21A2EAA1BBB1BFD010DC0AA1F57
S1132EE0BB1FEE1FFF1FA217B307E407F50720F06F
S1132EF0A21BB30BE40BF50B661F771F881F991FEA
S1132F001A9469F760957095809590959B01AC0132
S1132F10BD01CF010895052E97FB16F400940FD040
S1132F2057FD05D0D6DF07FC02D046F408C0509503
S1132F304095309521953F4F4F4F5F4F08959095A1
S1132F408095709561957F4F8F4F9F4F0895EE0F39
S1132F50FF1F881F8BBF0790F691E02D19948F9265
S1132F609F92AF92BF92CF92DF92EF92FF92CF9354
S1132F70DF93EC01688179818A819B8161157105F8
S1132F808105910521F464E279ED8BE597E02DE16B
S1132F9033EF41E050E0BFDF49015A019B01AC012E
S1132FA0A7EAB1E42DD36B017C01ACEEB4EFA5012B
S1132FB0940132D3DC01CB018C0D9D1DAE1DBF1DD0
S1132FC0B7FF03C00197A109B04888839983AA83F6
S1132FD0BB839F77DF91CF91FF90EF90DF90CF90ED
S1132FE0BF90AF909F908F900895B9CF80E092E00A
S1132FF0B6CFA0E0B0E08093000290930102A093CA
S11330000202B09303020895FB01DC0102C00190A7
S11330100D9241505040D8F70895CF93DF93CDB728
S1133020DEB7AE014A5F5F4FFA0161917191AF0162
S113303080916E1390916F1336D0DF91CF910895E4
S113304060916E1370916F1341C20F931F93CF93CE
S1133050DF93CDB7DEB72E970FB6F894DEBF0FBE61
S1133060CDBF0E891F8986E08C831A8309838FEF75
S11330709FE79E838D83AE01465E5F4F688D798D99
S1133080CE01019610D0EF81F885E00FF11F108278
S11330902E960FB6F894DEBF0FBECDBFDF91CF9151
S11330A01F910F9108952F923F924F925F926F92CA
S11330B07F928F929F92AF92BF92CF92DF92EF92C4
S11330C0FF920F931F93CF93DF93CDB7DEB72B9768
S11330D00FB6F894DEBF0FBECDBF6C017B018A0131
S11330E0FC0117821682838181FFBFC1CE01019644
S11330F03C01F6019381F70193FD859193FF819142
S11331007F01882309F4ADC1853239F493FD85919B
S113311093FF81917F01853221F4B60190E0D6D1ED
S1133120E8CF912C212C312CFFE1F315D8F08B3210
S113313079F038F4803279F08332A1F4232D2061C0
S11331401DC08D3261F0803369F4232D216016C0D7
S1133150832D8260382EE32DE4603E2E2AC0F32DA9
S1133160F8601DC037FC2DC020ED280F2A3040F038
S11331708E32B9F436FC75C1232D2064322E19C069
S113318036FE06C08AE0989E200D1124922E11C0AE
S1133190EAE02E9E200D1124222EF32DF0623F2E04
S11331A008C08C3621F4832D8068382E02C08836FE
S11331B041F4F70193FD859193FF81917F01811182
S11331C0B3CF982F9F7D9554933028F40C5F1F4FF5
S11331D09FE399830DC0833631F0833771F08335D3
S11331E009F055C020C0F801808189830E5F1F4F0C
S11331F088248394912C530112C02801F2E04F0ECD
S1133200511CF801A080B18036FE03C0692D70E026
S113321002C06FEF7FEFC5014ED14C018201F32D47
S1133220FF773F2E15C0280122E0420E511CF80101
S1133230A080B18036FE03C0692D70E002C06FEF3C
S11332407FEFC5012DD14C01F32DF0683F2E820193
S113325033FC19C0822D90E088169906A0F4B601BB
S113326080E290E033D12A94F5CFF50137FC8591C3
S113327037FE81915F01B60190E028D121102A9494
S113328021E0821A91088114910479F7E1C084360F
S113329011F0893639F5F80137FE07C06081718174
S11332A0828193810C5F1F4F08C060817181072E5A
S11332B0000C880B990B0E5F1F4FF32DFF763F2EEA
S11332C097FF09C090958095709561957F4F8F4FBA
S11332D09F4FF0683F2E2AE030E0A30133D1882EBF
S11332E0861844C0853731F4232D2F7EB22E2AE070
S11332F030E025C0932D997FB92E8F36C1F018F494
S1133300883579F0AEC0803719F0883721F0A9C02C
S1133310E92FE061BE2EB4FE0DC0FB2DF460BF2E7C
S113332009C034FE0AC0292F2660B22E06C028E048
S113333030E005C020E130E002C020E132E0F801D5
S1133340B7FE07C060817181828193810C5F1F4F3A
S113335006C06081718180E090E00E5F1F4FA30181
S1133360F1D0882E8618FB2DFF773F2E36FE0DC038
S1133370232D2E7FA22E891458F434FE0BC032FC68
S113338009C0832D8E7EA82E05C0B82CA32C03C0A3
S1133390B82C01C0B92CA4FE0FC0FE01E80DF11D2C
S11333A08081803321F49A2D997EA92E09C0A2FE32
S11333B006C0B394B39404C08A2D867809F0B394FC
S11333C0A3FC10C0A0FE06C0B21480F4280C922CFA
S11333D09B180DC0B21458F4B60180E290E076D088
S11333E0B394F8CFB21418F42B1802C0982C212CE3
S11333F0A4FE0FC0B60180E390E068D0A2FE16C020
S1133400A1FC03C088E790E002C088E590E0B60123
S11334100CC08A2D867851F0A1FE02C08BE201C057
S113342080E2A7FC8DE2B60190E050D0891430F41C
S1133430B60180E390E04AD09A94F8CF8A94F301DD
S1133440E80DF11D8081B60190E040D08110F6CFE7
S1133450222009F44ECEB60180E290E037D02A94BF
S1133460F7CFF6018681978102C08FEF9FEF2B96ED
S11334700FB6F894DEBF0FBECDBFDF91CF911F9181
S11334800F91FF90EF90DF90CF90BF90AF909F90FF
S11334908F907F906F905F904F903F902F90089502
S11334A0FC010590615070400110D8F7809590950B
S11334B08E0F9F1F0895FC01615070400190011010
S11334C0D8F7809590958E0F9F1F08950F931F93A3
S11334D0CF93DF93FB01238121FD03C08FEF9FEF87
S11334E02CC022FF16C046815781248135814217A2
S11334F0530744F4A081B1819D012F5F3F4F318375
S113350020838C93268137812F5F3F4F3783268317
S113351014C08B01EC01FB010084F185E02D1995A9
S1133520892BE1F6D80116968D919C9117970196F7
S113353017969C938E931697CE01DF91CF911F918E
S11335400F910895FA01AA27283051F1203181F111
S1133550E8946F936E7F6E5F7F4F8F4F9F4FAF4F97
S1133560B1E03ED0B4E03CD0670F781F891F9A1FAA
S1133570A11D680F791F8A1F911DA11D6A0F711D5E
S1133580811D911DA11D20D009F468943F912AE06A
S1133590269F11243019305D3193DEF6CF01089552
S11335A0462F4770405D4193B3E00FD0C9F7F6CF83
S11335B0462F4F70405D4A3318F0495D31FD40524B
S11335C0419302D0A9F7EACFB4E0A69597958795E1
S11335D077956795BA95C9F70097610571050895C0
S11335E09B01AC010A2E069457954795379527956C
S11335F0BA95C9F7620F731F841F951FA01D089504
S11336000FD0A59F900DB49F900DA49F800D911D88
S113361011240895B7FFF4CFF3DF821B930B0895B1
S1133620A29FB001B39FC001A39F700D811D1124FF
S1133630911DB29F700D811D1124911D0895F89460
S1053640FFCFB6
S1133642010000000000000300000000EC02000082
S113365200000000803FE8030000E8030000E803E4
S1133662000048656C6C6F20554152540D0A0041AC
S1133672646472657373206D657373616765200A90
S11336820D004164647265737320726573706F6EAA
S1133692736520726376642C202578200D00556EA4
S11336A26B6E6F776E2041646472657373204D652F
S11336B273736167653A20202578202F6E2F72007C
S11336C22D2D2D2D2D2D2D2D2D2D2D2D2D2D2D2D24
S11336D22D2D2D2D2D2D0A0D004E6F64652054794C
S11336E270653A202564200A0D0053686F727420B5
S11336F2616464723A2030782558200A0D005061C2
S113370272656E7420616464723A203078255820A0
S11337120A0D004C51493A202564200A0D005253E7
S113372253493A202564200A0D0053656E736F7263
S11337327320547970653A202564200A0D0053657C
S11337426E736F72732053697A653A202564200A76
S11337520D0053656E736F727320426174746572E7
S1133762793A202564200A0D0053656E736F7273D3
S11337722054656D703A202564200A0D0053656E4D
S1133782736F7273204C696768743A202564200A47
S11337920D0053656E736F7273204D6F6973747588
S11337A272653A202564200A0D0053656E736F72A8
S11337B273205765696768743A202564200A0D00EE
S11337C243617074696F6E20547970653A20256480
S11337D2200A0D0043617074696F6E2053697A6523
S11337E23A202564200A0D0043617074696F6E20CB
S11337F2546578743A0056616C75653A20256C6498
S11338022E2530326C6420670057656C636F6D65DA
S113381220746F20696E74657261637469766520C1
S11338227465726D696E616C210031202E2E2E2E0C
S11338322E2E207265616420776569676874204161
S113384244432076616C7565730032202E2E2E2E31
S11338522E2E2063616C69627261746520776569DA
S11338626768742072656164696E670033202E2E66
S11338722E2E2E2E20726561642063616C69627241
S1133882617465642076616C7565730034202E2E34
S11338922E2E2E2E20726561642063616C69627221
S11338A2617465642076616C75657320616E642051
S11338B273656E64207468656D20746F206761742B
S11338C2657761790030202E2E2E2E2E2E20636CE9
S11338D265617200496E697420646F6E652E0059C9
S11338E26F757220696E7075742069733A0052653F
S11338F26164696E6720776569676874204144432F
S11339022076616C75653A0056616C75653A2025BE
S11339126C750043616C69627261746520746172D2
S1133922652077656967687400455343202E2E2EFF
S11339322E2E2E2E2063616E63656C00454E544517
S113394252202E2E2E2E2E20636F6E6669726D000B
S11339524E6F7420696D706C656D656E746564205C
S11339624C4D414F0043757272656E7420746172DE
S1133972652076616C75653A20256C750043616C2F
S11339826962726174652077697468207374616E08
S1133992646172642077656967687400456E746552
S11339A272207374616E64617264207765696768FA
S11339B2742077656967687420696E206772616D27
S11339C2733A002B202E2E2E2E2E2E2E2E2E2061DA
S11339D2646420776569676874002D202E2E2E2E6C
S11339E22E2E2E2E2E2073756274726163742077CC
S11339F2656967687400496E636F727265637420E7
S1133A0263686F6963650043757272656E742073CF
S1133A1274616E64617264207765696768743A20C0
S1133A22256C750046696E616C207374616E646105
S1133A327264207765696768743A20256C7500534F
S1133A4274616E6461726420776569676874207258
S1133A52656164696E673A20256C750043414C497F
S1133A6242524154494F4E2050524F4345535320E2
S1133A7246494E4953484544212121005265616417
S1133A82696E672077656967687420696E20673A92
S1133A9200534D415254205745494748542034322B
S1133AA23000414444525F7265712C206E6F64652C
S1133AB249443D2578200A0D00496E76616C69649B
S1133AC220696E7075742C20706C65617365206357
S1113AD2686F6F736520616761696E2E000076
S9030000FC
